{
  "contractName": "TodoList",
  "abi": [
    {
      "constant": true,
      "inputs": [],
      "name": "taskcount",
      "outputs": [
        {
          "name": "",
          "type": "uint256"
        }
      ],
      "payable": false,
      "stateMutability": "view",
      "type": "function",
      "signature": "0x8bd48089"
    }
  ],
  "bytecode": "0x608060405260008055348015601357600080fd5b50609e806100226000396000f3fe608060405260043610603f576000357c0100000000000000000000000000000000000000000000000000000000900463ffffffff1680638bd48089146044575b600080fd5b348015604f57600080fd5b506056606c565b6040518082815260200191505060405180910390f35b6000548156fea165627a7a72305820c229264250b1edeb23272993033568365640ef9acb9bfd422da64245fb51ca080029",
  "source": "pragma solidity ^0.5.0;\r\n\r\ncontract TodoList\r\n{\r\n    uint public taskcount=0;\r\n}\r\n",
  "sourcePath": "C:/Users/JYOTHI/Desktop/Nitish/listit/contracts/TodoList.sol",
  "compiler": {
    "name": "solc",
    "version": "0.5.0+commit.1d4f565a.Emscripten.clang"
  },
  "schemaVersion": "3.0.1",
  "updatedAt": "2022-10-07T18:19:12.786Z",
  "devdoc": {
    "methods": {}
  },
  "userdoc": {
    "methods": {}
  }
}